:0400000080312E28F5
:10000800803120007F08F0000B1D0B280C280D28DC
:100018000B11111C102811282B2811108030960064
:10002800C13097000130AC070030AD3DFA302C06E6
:100038002D04031D202821282728AC01AD01B60175
:100048000314B60D9501B5010314B50D2B287008DE
:10005800FF00090088018431E82C11302000B70026
:10006800B800B900DA005A08BA0094283B282708D3
:10007800E1002608E0002508DF002408DE00A728A4
:1000880045282708E1002608E0002508DF002408A5
:10009800DE000130DE35DF0DE00DE10D890B4E2865
:1000A800A72856282708E1002608E0002508DF00D1
:1000B8002408DE000230DE35DF0DE00DE10D890B8E
:1000C8005F28A72867282708E1002608E0002508F8
:1000D800DF002408DE000030F4000030F3001330A5
:1000E800F2008830F1006108F8006008F7005F0846
:1000F800F6005E08F5008431802480317408200001
:10010800E1007308E0007208DF007108DE000A30C1
:10011800E136E00CDF0CDE0C890B8C28A728A72819
:1001280065080739DA00DB015B08003A03199D28E6
:10013800A7285A088400083004020318A728853124
:100148000435513E8200651CAA28AB28CC28003013
:10015800F4000030F3000030F2000530F1006108CF
:10016800F8006008F7005F08F6005E08F5008431C3
:100178002E2480317108503E860087010108200036
:10018800DE078039031DFF30DF3DE03DE13DCC282F
:1001980023082204210420040319D328D42824295D
:1001A8000130DA000030DB000030DC000030DD0018
:1001B8005A08A0025B08A13B5C08A23B5D08A33B70
:1001C8000C160C1AE828EB2820008E17ED282000C2
:1001D8008E131130B700DA005A08BA006508DA0041
:1001E800DB01DC01DD015D08E1005C08E0005B0883
:1001F800DF005A08DE005E080F39DA005A08B80036
:100208000430E136E00CDF0CDE0C890B05290030E8
:10021800F4000030F3000030F2000A30F100610809
:10022800F8006008F7005F08F6005E08F500843102
:100238002E24803171082000DA005A08B9004D2AAE
:100248000030F4000030F3000030F2000A30F10012
:100258006108F8006008F7005F08F6005E08F5001E
:1002680084312E24803171082000DA005A08B70042
:100278000030F4000030F3000030F2000A30F100E2
:100288006108F8006008F7005F08F6005E08F500EE
:100298008331CB23803174082000E1007308E0002B
:1002A8007208DF007108DE000030F4000030F3004F
:1002B8000030F2000A30F1006108F8006008F70029
:1002C8005F08F6005E08F50084312E24803171083D
:1002D8002000DA005A08B8000030F4000030F300BB
:1002E8000030F2000A30F1006108F8006008F700F9
:1002F8005F08F6005E08F5008331CB23803174086F
:100308002000E1007308E0007208DF007108DE00D9
:100318000030F4000030F3000030F2000A30F10041
:100328006108F8006008F7005F08F6005E08F5004D
:1003380084312E24803171082000DA005A08B9006F
:100348000030F4000030F3000030F2000A30F10011
:100358006108F8006008F7005F08F6005E08F5001D
:100368008331CB23803174082000E1007308E0005A
:100378007208DF007108DE000030F4000030F3007E
:100388000030F2000A30F1006108F8006008F70058
:100398005F08F6005E08F50084312E24803171086C
:1003A8002000DA005A08BA000C128E134D2A4D2A82
:1003B8008D133A083B3E8600870101088E00EA2922
:1003C8008E17FB290C16FB29FB29FB2965087039B8
:1003D800DA00DB015B08003A0319F329FB295A0804
:1003E800103A0319E429403A0319E629FB290D16A6
:1003F800672A0D1239083B3E8600870101088E00E6
:100408000B2A8E171C2A0C161C2A1C2A1C2A650863
:100418007039DA00DB015B08003A0319142A1C2A38
:100428005A08203A0319052A403A0319072A1C2AB0
:100438008D16672A8D1238083B3E86008701010811
:100448008E002C2A8E173D2A0C163D2A3D2A3D2A5D
:1004580065087039DA00DB015B08003A0319352AB0
:100468003D2A5A08303A0319262A403A0319282AFD
:100478003D2A0D17672A0D1337083B3E8600870172
:1004880001088E008D17672A853161258031672A1A
:10049800672A033020002E05DA0000302F05DB0024
:1004A8005B08003A0319592A482A5A08003A0319DE
:1004B800DC29013A0319FD29033A03191E2A013AD6
:1004C80003193F2A482A0800083021009D00B3304C
:1004D8009E0083302200970021001D1423008E0106
:1004E8008D018C01F0302100990097010430230020
:1004F8008C0021008C0020008C0121000C142000AD
:100508000C1021008C1420008C1024000C148C1466
:100518002000AE01AF01B5010030853108258231D8
:100528002000E2006208E50085313E258231200086
:10053800AC01AD010030A3000030A2000030A100E2
:100548000030A000B00108303002031CAC2AAD2AEC
:10055800AF2ACC2ACC2A3008E2000130E235FF3E2F
:10056800031DB22A6235A03E860087010030C03FD5
:100578000030C13F0030C23F0030C33F0130E200CD
:100588006208B00708303002031CCB2ACC2AAF2AF5
:10059800B0019E131E1095013830210095008B166E
:1005A800403020009800960197011814111021007E
:1005B80011140B178B100B120B108B1127009101C4
:1005C800920115302000E4004B30E300D130E20006
:1005D800E20BEC2AE30BEC2AE40BEC2A64008B1701
:1005E800F52A640020003508013A031DFC2AFD2A7B
:1005F8005A2BB5013608013A031D032B042B392B5E
:10060800FF30E2006208B6008B1321001D149D1410
:10061800112B01302000B602112B21009D1C152B37
:10062800162B1E2B05302000360203181C2B1D2B01
:100638000D2B1E2B21009D101D1000302000A7003F
:100648000030A6000030A5000030A40021001C08DE
:100658002000E2006208A50021001B082000E2003B
:100668006208A4008B17B601392B80313120823102
:1006780020003108013A031D422B432B4E2B013039
:10068800AE070030AF3D7F302E05AE0000302F059D
:10069800AF005A2B0130AE070030AF3D03302E05B6
:1006A800AE0000302F05AF005A2B5A2B0C185D2BCB
:1006B8005E2B902B0330E4000830E3007830E20032
:1006C800E20B642BE30B642BE40B642B20000C1867
:1006D8006E2B6F2B902B712B712B0C1C742B752B85
:1006E800712B762B0130E2006208E5077730E200D3
:1006F8006208E5050030A3000030A2000330A10025
:10070800E830A0006508E2006208F100003084319A
:10071800BA248231902B902B20008C18942B952B87
:10072800F52A0330E4000830E3007830E200E20BF9
:100738009B2BE30B9B2BE40B9B2B20008C18A52BEE
:10074800A62BF52AA82BA82B8C1CAB2BAC2BA82BE3
:10075800AD2B1030E2006208E5077730E20062084E
:10076800E5050030A3000030A2000330A100E83006
:10077800A0006508E2006208F10000308431BA2464
:100788008231F52AF52AF52AF52A80312E280030FB
:100798002000D8000030D7000030D6000030D50047
:1007A80074087304720471040319DB2BDC2B242CEA
:1007B800D9010314D90DEC2B0130F135F20DF30DED
:1007C800F40D890BE12B0130F9007908D907EC2BDE
:1007D800F41FEF2BF02BE02BF22BF22B0130D53549
:1007E800D60DD70DD80D890BF32B74087802031D8D
:1007F800072C73087702031D072C72087602031D65
:10080800072C71087502031C0A2C0B2C152C710877
:10081800F5027208F63B7308F73B7408F83B551469
:10082800152C0130F436F30CF20CF10C890B162C54
:100838000130D902031D212C222CF22B242C242C2C
:100848005808F4005708F3005608F2005508F1005C
:100858002D2C080074087304720471040319352CD4
:10086800362C762CFA010314FA0D462C0130F1359A
:10087800F20DF30DF40D890B3B2C0130F9007908CA
:10088800FA07462CF41F492C4A2C3A2C4C2C4C2C99
:1008980074087802031D5A2C73087702031D5A2C1A
:1008A80072087602031D5A2C71087502031C5D2C10
:1008B8005E2C672C7108F5027208F63B7308F73B4B
:1008C8007408F83B672C0130F436F30CF20CF10C89
:1008D800890B682C0130FA02031D732C742C4C2CE4
:1008E800762C762C7808F4007708F3007608F20066
:1008F8007508F1007F2C080000302000D800003077
:10090800D7000030D6000030D5008A2C711C8D2C01
:100918008E2C982C75082000D5077608D63D7708C8
:10092800D73D7808D83D982C0130F535F60DF70DF0
:10093800F80D890B992C0130F436F30CF20CF10CFC
:10094800890BA02C7408730472047104031DAD2C68
:10095800AE2C8A2CAF2C20005808F4005708F3005E
:100968005608F2005508F100B92C0800F400BC2C18
:1009780023009518C02CC12CBC2CC22C7408F20082
:10098800F3017208910073089200710893003F30D8
:10099800F20072089505200003108B1FD42CD52C6B
:1009A800D62C03148B132300151555309600AA3046
:1009B8009600951415112000031CE32CE42CE72C59
:1009C8008B17E72CE72C0800FB012030840000304F
:1009D80085001B30853168258431A03084000030C3
:1009E80085002030853168258431243084008530A5
:1009F80085003B308600003087001A3085316E252F
:100A0800843120008231682AF4006400230095189C
:100A18000E2D0F2D092D102D7408F100F20171080B
:100A28009100720892003F30F30073089505151481
:100A38000310151803140030093D1308232D08006E
:100A4800113406345B344F3466346D347D340734E6
:100A58007F346F34403400347634763476347634E8
:100A6800403400340034763476340034FF34FE34B5
:100A78000234013421008E018D130D138D120D12D5
:100A88000C1220008E018D130D138D120D120C12F5
:100A98003F30F1007108BB00080080313B288031ED
:100AA8004528803156288031672880313B2880319D
:100AB8004528803156288031672820008E010D1284
:100AC8008D120D138D130800640080010131890B0C
:100AD800692D0034FE0012001E00FE0B6F2D00343D
:020000040001F9
:04000E00E4CFFFDD5F
:02E0000012000C
:00000001FF
