:0400000080312E28F5
:10000800803120007F08F0000B1D0B280C280D28DC
:100018000B11111C102811282B2811108030960064
:10002800C13097000130C8070030C93DFA30480692
:100038004904031D202821282728C801C901D20105
:100048000314D20D9501D1010314D10D2B2870088A
:10005800FF000900880186313B2E11302000D300B3
:10006800D400D500AD002D08D60064293C283C28D2
:100078004308A8004208A7004108A6004008A500B8
:1000880085312E25803120002808B8002708B700C0
:100098002608B6002508B5005A083802031D5E2850
:1000A80059083702031D5E2858083602031D5E28CA
:1000B80057083502031C612862286B285708B502C7
:1000C8005808B63B5908B73B5A08B83BA32806302E
:1000D8005B0203187028712876281030AD002D08AF
:1000E800D6007B281030AD002D08D5007B28570896
:1000F800AD005808AE005908AF005A08B0003509DD
:10010800B1003609B2003709B3003809B400B10AA2
:100118000319B20A0319B30A0319B40A3108AD075F
:100128003208AE3D3308AF3D3408B03D3008B80062
:100138002F08B7002E08B6002D08B500A3280430F4
:100148005B02031CA828A9286E290030F40000309F
:10015800F3000030F2000530F1003808F8003708E5
:10016800F7003608F6003508F5008531812580311D
:1001780071085C3E8600870101082000B5078039B8
:10018800031DFF30B63DB73DB83D6E296E29CE2818
:10019800CE28CE284308B8004208B7004108B60068
:1001A8004008B5000030F4000030F3000330F200DE
:1001B800E830F1003808F8003708F7003608F6008C
:1001C8003508F5008531D325803174082000B80042
:1001D8007308B7007208B6007108B5001F30B5077C
:1001E8000E30B63D0030B73D0030B83D0030F40069
:1001F8000030F3000030F2000A30F1003808F8004F
:100208003708F7003608F6003508F5008531D3259C
:10021800803174082000B8007308B7007208B6006F
:100228007108B5000030F4000030F3000C30F20023
:10023800B830F1003808F8003708F7003608F6003B
:100248003508F5008431CB24803174082000B800CB
:100258007308B7007208B6007108B50004305B0275
:10026800031C372938296E290030F4000030F300C8
:100278000030F2000530F1003808F8003708F700C0
:100288003608F6003508F50085318125803171087A
:100298005C3E8600870101082000B5078039031DF0
:1002A800FF30B63DB73DB83D6E296E294308B8000A
:1002B8004208B7004108B6004008B5006E296E290B
:1002C8005B0884000830040203186E29863104355F
:1002D800B53E82003F083E043D043C0403197529DD
:1002E8007629EE290130AD000030AE000030AF00B5
:1002F8000030B0002D08BC022E08BD3B2F08BE3BC5
:100308003008BF3B0C160C1A8A298D2920008E173D
:100318008F2920008E131130D300AD002D08D60090
:100328005B08AD00AE01AF01B0013008B8002F087E
:10033800B7002E08B6002D08B5000030F4000030D4
:10034800F3000030F2000A30F1003808F8003708EE
:10035800F7003608F6003508F5008531812580312B
:1003680071082000AD002D08D4000030F4000030E2
:10037800F3000030F2000A30F1003808F8003708BE
:10038800F7003608F6003508F5008431CB248031B3
:1003980074082000B8007308B7007208B600710826
:1003A800B5000030F4000030F3000030F2000A30ED
:1003B800F1003808F8003708F7003608F600350865
:1003C800F50085318125803171082000AD002D08A8
:1003D800D500062B0030F4000030F3000030F200A6
:1003E8000A30F1003808F8003708F7003608F60038
:1003F8003508F50085318125803171082000AD0070
:100408002D08D3000030F4000030F3000030F20073
:100418000A30F1003808F8003708F7003608F60007
:100428003508F5008431CB24803174082000B800E9
:100438007308B7007208B6007108B5000030F40000
:100448000030F3000030F2000A30F1003808F800FC
:100458003708F7003608F6003508F500853181259C
:10046800803171082000AD002D08D4000030F40060
:100478000030F3000030F2000A30F1003808F800CC
:100488003708F7003608F6003508F5008431CB2424
:10049800803174082000B8007308B7007208B600ED
:1004A8007108B5005508103A03195B2A5C2A742AAA
:1004B8000030F4000030F3000030F2000A30F100A0
:1004C8003808F8003708F7003608F6003508F50050
:1004D80085318125803171082000AD002D08D500B7
:1004E8000030F4000030F3000030F2000A30F10070
:1004F8003808F8003708F7003608F6003508F50020
:100508008431CB24803174082000B8007308B70008
:100518007208B6007108B5005B0803390319952AFB
:10052800962AAF2A0030F4000030F3000030F200C1
:100538000A30F1003808F8003708F7003608F600E6
:100548003508F50085318125803171082000AD001E
:100558002D08D600AF2A07305B02031CB42AB52A3F
:10056800BB2A1130D300AD002D08D600BB2A0C12CF
:100578008E13062B062B8D135608C03E8600870166
:1005880001088E00CB2A8E17D32AD32AD32A5B08D8
:10059800013A0319C72A043A0319C72AD32A0D16A0
:1005A800202B0D125508C03E8600870101088E00D9
:1005B800E22ADE2A8E17ED2AED2AED2A5B08003A98
:1005C8000319DE2A043A0319DE2A033A0319DE2A3C
:1005D800ED2A8D16202B8D125408C03E8600870107
:1005E80001088E000D17202B0D135308C03E8600FE
:1005F800870101088E008D17202B8631C526803192
:10060800202B202B033020004A05AD0000304B057D
:10061800AE002E08003A0319122B012B2D08003AC0
:100628000319BF2A013A0319D52A033A0319EF2AF5
:10063800013A0319F82A012B0800083021009D000F
:10064800B0309E0003302200970021001D142300C3
:100658008E018D018C01F030210099009701043042
:1006680023008C0021008C0020008C0121000C1438
:1006780020000C1021008C1420008C1024000C1475
:100688008C142000CA01CB01D101003086318426A8
:1006980083312000B9003908DB00863167268331B1
:1006A8002000C801C9010030BF000030BE00003082
:1006B800BD000030BC00CC0108304C02031C652B87
:1006C800662B682B852B852B4C08B9000130B93572
:1006D800FF3E031D6B2B3935A03E86008701003095
:1006E800C03F0030C13F0030C23F0030C33F01303F
:1006F800B9003908CC0708304C02031C842B852B21
:10070800682BCC019E131E109501383021009500EE
:100718008B1640302000980096019701181411108C
:10072800210011140B178B100B120B108B112700C3
:100738009101920115302000BB004B30BA00D13036
:10074800B900B90BA52BBA0BA52BBB0BA52B6400C5
:1007580021009D14FF302000B9003908D200B72BC2
:100768000130D202B72B21009D1CBB2BBC2BC42B04
:100778000530200052020318C22BC32BB42BC42B04
:1007880021009D18C82BC92BF32B00302000C30073
:100798000030C2000030C1000030C00021001C0839
:1007A8002000B9003908C10021001B082000B90049
:1007B8003908C0004308A8004208A7004108A6005D
:1007C8004008A50085312E25833120002808DA004D
:1007D8002708D9002608D8002508D700F32B2100C0
:1007E8009D108B17F72B640020005108013A031D58
:1007F800FE2BFF2B5C2CD1015208013A031D052C5E
:10080800062C3B2CFF30B9003908D2008B1321008D
:100818001D149D14132C01302000D202132C21002A
:100828009D1C172C182C202C053020005202031870
:100838001E2C1F2C0F2C202C21009D101D10003069
:100848002000C3000030C2000030C1000030C000EA
:1008580021001C082000B9003908C10021001B082C
:100868002000B9003908C0008B17D2013B2C803119
:100878003120833120004D08013A031D442C452CBA
:10088800502C0130CA070030CB3D7F304A05CA00E2
:1008980000304B05CB005C2C0130CA070030CB3D43
:1008A80003304A05CA0000304B05CB005C2C5C2C99
:1008B8000C185F2C602C922C0330BB000830BA0057
:1008C8007830B900B90B662CBA0B662CBB0B662CBA
:1008D80020000C18702C712C922C732C732C0C1C6F
:1008E800762C772C732C782C0130B9003908DB076B
:1008F8000730B9003908DB050030BF000030BE0002
:100908000330BD00E830BC005B08B9003908F100CD
:10091800003086310D268331922C922C20008C18C1
:10092800962C972CF72B0330BB000830BA00783090
:10093800B900B90B9D2CBA0B9D2CBB0B9D2C20002C
:100948008C18A72CA82CF72BAA2CAA2C8C1CAD2C05
:10095800AE2CAA2CAF2C0130DB020730B9003908C5
:10096800DB050030BF000030BE000330BD00E830BA
:10097800BC005B08B9003908F100003086310D264B
:100988008331F72BF72BF72BF72B80312E280030EC
:100998002000A3000030A2000030A1000030A00019
:1009A80074087304720471040319DB2CDC2C242DE5
:1009B800A4010314A40DEC2C0130F135F20DF30D54
:1009C800F40D890BE12C0130F9007908A407EC2C0F
:1009D800F41FEF2CF02CE02CF22CF22C0130A03577
:1009E800A10DA20DA30D890BF32C74087802031D29
:1009F800072D73087702031D072D72087602031D61
:100A0800072D71087502031C0A2D0B2D152D710871
:100A1800F5027208F63B7308F73B7408F83B20149C
:100A2800152D0130F436F30CF20CF10C890B162D50
:100A38000130A402031D212D222DF22C242D242D5A
:100A48002308F4002208F3002108F2002008F1002E
:100A58002D2D080020002808AC002708AB00260828
:100A6800AA002508A9000030F4000030F300033084
:100A7800F200E830F1002C08F8002B08F7002A08EB
:100A8800F6002908F5008531D32585317408200042
:100A9800AC007308AB007208AA007108A9001F30E7
:100AA800A9070E30AA3D0030AB3D0030AC3D003008
:100AB800F4000030F3000C30F200B830F1002C08DC
:100AC800F8002B08F7002A08F6002908F5008431F9
:100AD800CB24853174082000AC007308AB00720881
:100AE800AA007108A9002C08A8002B08A7002A084A
:100AF800A6002908A500802D080074087304720454
:100B080071040319882D892DC92DFA010314FA0DD2
:100B1800992D0130F135F20DF30DF40D890B8E2D61
:100B28000130F9007908FA07992DF41F9C2D9D2DA5
:100B38008D2D9F2D9F2D74087802031DAD2D7308F0
:100B48007702031DAD2D72087602031DAD2D7108C5
:100B58007502031CB02DB12DBA2D7108F50272086B
:100B6800F63B7308F73B7408F83BBA2D0130F436AE
:100B7800F30CF20CF10C890BBB2D0130FA02031DAA
:100B8800C62DC72D9F2DC92DC92D7808F4007708CB
:100B9800F3007608F2007508F100D22D0800003045
:100BA8002000A3000030A2000030A1000030A00007
:100BB800DD2D711CE02DE12DEB2D75082000A0071F
:100BC8007608A13D7708A23D7808A33DEB2D0130BA
:100BD800F535F60DF70DF80D890BEC2D0130F436CF
:100BE800F30CF20CF10C890BF32D740873047204E6
:100BF8007104031D002E012EDD2D022E2000230876
:100C0800F4002208F3002108F2002008F1000C2E5D
:100C18000800F4000F2E23009518132E142E0F2E03
:100C2800152E7408F200F3017208910073089200FF
:100C3800710893003F30F2007208950520000310F8
:100C48008B1F272E282E292E03148B1323001515EE
:100C580055309600AA309600951415112000031CF3
:100C6800362E372E3A2E8B173A2E3A2E0800FB01D5
:100C78003C308400003085001B308631CC2686311C
:100C8800A03084000030850020308631CC268631A3
:100C9800D8308400863085005C30860000308700BC
:100CA80005308631D2268631A03084008630850012
:100CB800C03086000030870015308631D226863154
:100CC80020008331212B21008E018D130D138D12ED
:100CD8000D120C1220008E018D130D138D120D12A2
:100CE8000C123F30F10071082100C00000302000D4
:100CF800DA000030D9000030D8006430D70008008E
:100D0800F4006400230095188A2E8B2E852E8C2ED5
:100D18007408F100F20171089100720892003F30E6
:100D2800F300730895051514031015180314003003
:100D3800093D13089F2E0800113406345B344F34E4
:100D480066346D347D3407347F346F344034003476
:100D5800763476347634763440340034003476345D
:100D6800763480313C288031CE288031CE288131BC
:100D78005A2980313C288031CE288031CE288031D4
:100D88003C2820008E010D128D120D138D130800C2
:100D9800640080010131890BCD2E0034FE00120061
:100DA8001E00FE0BD32E00340034FF34FE34023410
:020DB800013404
:020000040001F9
:04000E00E4CFFFDD5F
:02E0000000001E
:00000001FF
